:020000040002F8
:10600000A88D0020A5640200AD640200AF64020008
:10601000B1640200B3640200B56402000000000035
:10602000000000000000000000000000B764020053
:10603000B964020000000000BB640200BD640200FD
:10604000DD970200BF64020075A90200E99A020010
:10605000FD9A0200BF64020021970200919802009D
:10606000BF640200BF640200BF640200BF6402009C
:10607000BF64020045980200BF640200BF640200D2
:1060800085A902006D980200BF640200BF6402008F
:10609000119B0200519C0200799C0200BF64020027
:1060A000BF640200BF640200BF640200BF6402005C
:1060B00031980200BF6402000000000000000000F0
:1060C000BF640200BF640200BF640200BF6402003C
:1060D000BF640200BF640200BF6402000000000051
:1060E00000000000000000000000000000000000B0
:1060F00000000000000000000000000000000000A0
:10610000000000000000000000000000000000008F
:10611000000000000000000000000000000000007F
:10612000000000000000000000000000000000006F
:10613000000000000000000000000000000000005F
:10614000000000000000000000000000000000004F
:10615000000000000000000000000000000000003F
:10616000000000000000000000000000000000002F
:10617000000000000000000000000000000000001F
:10618000000000000000000000000000000000000F
:1061900000000000000000000000000000000000FF
:1061A00000000000000000000000000000000000EF
:1061B00000000000000000000000000000000000DF
:1061C00000000000000000000000000000000000CF
:1061D00000000000000000000000000000000000BF
:1061E00000000000000000000000000000000000AF
:1061F000000000000000000000000000000000009F
:10620000DFF80CD001F0ECFA00480047793D0300BC
:10621000A88D002030B4044654E8000F0D4644E831
:106220000053002BF8D1156030BC704730B40446E1
:1062300054E8000F40EA010544E80053002BF7D171
:10624000156030BC704730B4044654E8000F00EAD3
:10625000010544E80053002BF7D1156030BC7047AE
:1062600030B4044654E8000F80EA010544E80053C6
:10627000002BF7D1156030BC704730B4044654E8A9
:10628000000F00EB010544E80053002BF7D1156027
:1062900030BC704730B4044654E8000FA0EB010551
:1062A00044E80053002BF7D1156030BC704770B440
:1062B00004464FF0000054E8006F0D68AE4207BF7F
:1062C00044E80023012044E800630E60002B1CBF5B
:1062D0000020F0E770BC704730B4044654E8000F6B
:1062E00088422CBF451A054644E80053002BF5D1DF
:1062F000156030BC7047000030B450E8012F93B2F5
:10630000C48923448489A34228BF1B1B0489A34258
:1063100002BFBFF32F8F002007E0C3EA020340E86B
:106320000134002CE9D14FF001000A6030BC704705
:1063300050E8012FC2EA024240E801210029F7D1CA
:10634000704730B450E8022F1FFAA2F3C488A3426A
:1063500002BFBFF32F8F00200DE0C489234484893E
:10636000A34228BF1B1BC2EA034340E80234002CAF
:10637000E8D14FF001000A6030BC704750E8022FAE
:10638000C2EA224240E802210029F7D170470346C1
:1063900053E8022FD988B2EB324F4FF0000017BFFD
:1063A00092B241EA014142EA014104E05A68B2EB8B
:1063B000324F08BF012043E80212002AE8D170479B
:1063C00030B4044654E8000F0D4644E80053002B57
:1063D000F8D1156030BC704730B4044654E8000F63
:1063E00040EA010544E80053002BF7D1156030BCAA
:1063F000704730B4044654E8000F00EA010544E851
:106400000053002BF7D1156030BC704730B4044600
:1064100054E8000F80EA010544E80053002BF7D14F
:10642000156030BC704730B4044654E8000F00EBF0
:10643000010544E80053002BF7D1156030BC7047CC
:1064400030B4044654E8000FA0EB010544E80053C3
:10645000002BF7D1156030BC704770B404464FF084
:10646000000054E8006F0D68AE4207BF44E8002307
:10647000012044E800630E60002B1CBF0020F0E701
:1064800070BC704730B4044654E8000F88422CBFFB
:10649000451A054644E80053002BF5D1156030BC81
:1064A000704700000648804706480047FEE7FEE7C1
:1064B000FEE7FEE7FEE7FEE7FEE7FEE7FEE7FEE7B4
:1064C000799F02000162020070B491E87800B2E89E
:1064D00002105B1854EB0C04B2E802104D4156EB6D
:1064E0000C0680E878008041013070BC704770B4C1
:1064F00091E87800B2E802105B1A74EB0C04B2E881
:1065000002108D4176EB0C0680E878008041404215
:1065100070BC70472DE9F00791E8F807B2E8021067
:106520005B1854EB0C04B2E802104D4156EB0C061C
:10653000B2E802104F4158EB0C08B2E8021059EBD8
:1065400001095AEB0C0A80E8F80780410130BDE8E8
:10655000F00770472DE9F00791E8F807B2E802105C
:106560005B1A74EB0C04B2E802108D4176EB0C065A
:10657000B2E802108F4178EB0C08B2E8021079EB18
:1065800001097AEB0C0A80E8F80780414042BDE837
:10659000F00770472DE9F007524290E87800B1E823
:1065A00080071740DB1918EA020854EB080419EABF
:1065B000020955EB09051AEA020A56EB0A0678C0E9
:1065C00090E87800B1E8800717407B4118EA02089C
:1065D00054EB080419EA020955EB09051AEA020A04
:1065E00056EB0A0678C080410130BDE8F0077047DD
:1065F0002DE9F007524290E87800B1E88007174093
:10660000DB1B18EA020874EB080419EA020975EBAF
:1066100009051AEA020A76EB0A0678C090E87800C3
:10662000B1E880071740BB4118EA020874EB080480
:1066300019EA020975EB09051AEA020A76EB0A065D
:1066400078C080414042BDE8F007704790E83000D4
:1066500091E8C000A31B1340E41AF618EB1B13408B
:10666000ED1AFF1830C0C0C17047F0B55242FFF7B5
:10667000EDFFFFF7EBFFFFF7E9FFFFF7E7FFF0BDE7
:106680002DE9F0073AC91668A1FB069A4FF0000CF5
:10669000E3FB06AC4FF00007E4FB06C74FF0000831
:1066A000E5FB067840F8049B56684FF00009E1FBD3
:1066B00006A9E3FB66C9E4FB6679E5FB668940F859
:1066C00004AB96684FF0000AE1FB06CAE3FB667A6A
:1066D000E4FB668AE5FB669A40F804CBD6684FF087
:1066E000000CE1FB067CE3FB668CE4FB669CE5FBAF
:1066F00066AC80E88017BDE8F00770470A462DE9D0
:10670000F04F40EC171A92EC080A1EC910EE100A5E
:10671000A1FB00784FF00009E2FB00894FF0000A6E
:10672000E3FB009A4FF0000BE4FB00AB12EE100A03
:106730004FF0000CE1FB00BC4FF0000EE2FB00CE7E
:106740004FF00005E3FB00E54FF00006E4FB0056C8
:1067500004EE107A10EE900A4FF00007E1FB00877C
:10676000E2FB6097E3FB60A7E4FB60B712EE900AE0
:10677000E1FB60C7E2FB60E7E3FB6057E4FB6067B7
:1067800004EE908A11EE100A4FF00008E1FB009829
:10679000E2FB60A8E3FB60B8E4FB60C813EE100AFC
:1067A000E1FB60E8E2FB6058E3FB6068E4FB6078D3
:1067B00005EE109A11EE900A4FF00009E1FB00A9D6
:1067C000E2FB60B9E3FB60C9E4FB60E913EE900A09
:1067D000E1FB6059E2FB6069E3FB6079E4FB6089FF
:1067E00005EE90AA17EE101A01F110011EC910EE65
:1067F000100A4FF0000AE1FB00BAE2FB60CAE3FBBB
:1068000060EAE4FB605A12EE100AE1FB606AE2FB08
:10681000607AE3FB608AE4FB609A06EE10BA10EE41
:10682000900A4FF0000BE1FB00CBE2FB60EBE3FBD7
:10683000605BE4FB606B12EE900AE1FB607BE2FBC5
:10684000608BE3FB609BE4FB60AB06EE90CA11EE4D
:10685000100A4FF0000CE1FB00ECE2FB605CE3FB94
:10686000606CE4FB607C13EE100AE1FB608CE2FBE1
:10687000609CE3FB60ACE4FB60BC07EE10EA11EE49
:10688000900A4FF0000EE1FB005EE2FB606EE3FB5E
:10689000607EE4FB608E13EE900AE1FB609EE2FBFB
:1068A00060AEE3FB60BEE4FB60CE17EE900AA0ECA6
:1068B000074A80E8E05FBDE8F08F00BF30B44FF0DA
:1068C000000310F8014B11F8015B013A84EA05045A
:1068D00043EA0403F5D1A3F101034FEAD37030BCBE
:1068E00070474FF0000310F8012B013943EA02030F
:1068F000F9D1A3F101034FEAD370704711F8013BBE
:1069000000F8013B013AF9D17047002200F8012B51
:106910000139FBD1704700BF2DE9F00791E8F80776
:10692000B2E802105B1854EB0C04B2E802104D41BF
:1069300056EB0C06B2E802104F4158EB0C08B2E8D7
:10694000021059EB01095AEB0C0A8941B3F1FF33EC
:1069500074F1FF3475F1FF3576F1000677F1000729
:1069600078F1000879F101097AF1FF3A51F100015B
:106970004A425B184C414D4156F1000657F1000761
:1069800058F1000859EB02095AEB010A80E8F807B0
:10699000BDE8F00770472DE9F00791E8F807B2E885
:1069A00002105B1A74EB0C04B2E802108D4176EB16
:1069B0000C06B2E802108F4178EB0C08B2E8021026
:1069C00079EB01097AEB0C0A89414A425B184C4188
:1069D0004D4156F1000657F1000758F1000859EBF8
:1069E00002095AEB010A80E8F807BDE8F007704792
:1069F0000A462DE9F04F40EC171A92EC080A1EC91E
:106A000010EE100AA1FB00784FF00009E2FB0089AC
:106A10004FF0000AE3FB009A4FF0000BE4FB00ABE1
:106A200012EE100A4FF0000CE1FB00BC4FF0000E1C
:106A3000E2FB00CE4FF00005E3FB00E54FF000065F
:106A4000E4FB005604EE107A10EE900A4FF00007B7
:106A5000E1FB0087E2FB6097E3FB60A7E4FB60B724
:106A600012EE900AE1FB60C7E2FB60E7E3FB6057D0
:106A7000E4FB606704EE908A11EE100A4FF0000804
:106A8000E1FB0098E2FB60A8E3FB60B8E4FB60C8B0
:106A900013EE100AE1FB60E8E2FB6058E3FB60687C
:106AA000E4FB607805EE109A11EE900A4FF00009B1
:106AB000E1FB00A9E2FB60B9E3FB60C9E4FB60E92C
:106AC00013EE900AE1FB6059E2FB6069E3FB607939
:106AD000E4FB608905EE90AA17EE101A01F110018F
:106AE0001EC910EE100A4FF0000AE1FB00BAE2FBEB
:106AF00060CAE3FB60EAE4FB605A12EE100AE1FBB5
:106B0000606AE2FB607AE3FB608AE4FB609A06EE6F
:106B100010BA10EE900A4FF0000BE1FB00CBE2FB45
:106B200060EBE3FB605BE4FB606B12EE900AE1FB61
:106B3000607BE2FB608BE3FB609BE4FB60AB06EEFB
:106B400090CA11EE100A4FF0000CE1FB00ECE2FBE2
:106B5000605CE3FB606CE4FB607C13EE100AE1FB1D
:106B6000608CE2FB609CE3FB60ACE4FB60BC07EE86
:106B700010EA11EE900A4FF0000EE1FB005EE2FB1E
:106B8000606EE3FB607EE4FB608E13EE900AE1FB37
:106B9000609EE2FB60AEE3FB60BEE4FB60CE53ECC4
:106BA000162A17EE104A12EB0A0253EB0B0354EBB2
:106BB0000C0455EB0E05002040F1000012EB0B0217
:106BC00053EB0C0354EB0E0455EB0E05464100202D
:106BD000474158EB000859EB0A0940F10000B2EBBD
:106BE0000E0273F1000374F1000475EB0A0576EBF5
:106BF0000B0677EB0C0778EB0A0879EB0C0960F1D0
:106C00000000B5EB0B0576EB0C0677EB0E0778EB87
:106C10000B0879EB0E0960F100005FEAE07C7FEA87
:106C20000C0CDCF1000EB2EB0C0273EB0C0374EBFA
:106C30000C0475F1000576F1000677F1000778EB9A
:106C40000E0879EB0C0960F100005FEAE07CDCF1F2
:106C5000000E12EB0C0253EB0C0354EB0C0455F139
:106C6000000556F1000657F1000758EB0E0859EBE6
:106C70000C0940F100005FEAE07CDCF1000E12EB51
:106C80000C0253EB0C0354EB0C0455F1000556F1C8
:106C9000000657F1000758EB0E0859EB0C095BECA6
:106CA00014AA51EC150A1AEB060A5BEB070B50EB22
:106CB000080051EB09015FF0000C4CF1000C1AEBDD
:106CC000070A5BEB080B50EB090051EB090152EB93
:106CD0000C025FF0000C53EB0C0354EB0C047541F9
:106CE0004CF1000CBAEB090A7BF1000B70F10000CB
:106CF000B141BA4173EB0803B44175EB08056CF17F
:106D0000000CC91B72EB080273EB0903BC4175EB65
:106D100009056CF1000C5FEAEC787FEA0808D8F10D
:106D20000009BAEB080A7BEB080B70EB080071F165
:106D3000000172F1000273F1000374EB090475EBBA
:106D400008056CF1000C5FEAEC78D8F100091AEB49
:106D5000080A5BEB080B50EB080051F1000152F1FF
:106D6000000253F1000354EB090455EB08054CF104
:106D7000000C5FEAEC78D8F100091AEB080A5BEB2B
:106D8000080B50EB080051F1000152F1000253F1E1
:106D9000000354EB090455EB080517EE907AA7E8B9
:106DA000000C87E83F00BDE8F08F00BF2DE9F00739
:106DB00091E8F807B2E802105B1854EB0C04B2E853
:106DC00002104D4156EB0C06B2E802104F4158EB51
:106DD0000C08B2E8021059EB01095AEB0C0A4FF00B
:106DE000260261EB010122EA01015B1854F1000463
:106DF00055F1000556F1000657F1000758F100085B
:106E000059F100095AF1000A61EB010122EA01017E
:106E10000B4480E8F807BDE8F00770472DE9F0075C
:106E200091E8F807B2E802105B1A74EB0C04B2E8C0
:106E300002108D4176EB0C06B2E802108F4178EB20
:106E40000C08B2E8021079EB01097AEB0C0A4FF05A
:106E5000260261EB010102EA01015B1A74F10004F0
:106E600075F1000576F1000677F1000778F100086A
:106E700079F100097AF1000A61EB010102EA0101EE
:106E8000A3EB010380E8F807BDE8F00770470A4666
:106E90002DE9F04F40EC171A92EC080A1EC910EECB
:106EA000100AA1FB00784FF00009E2FB00894FF0C7
:106EB000000AE3FB009A4FF0000BE4FB00AB12EE7C
:106EC000100A4FF0000CE1FB00BC4FF0000EE2FB9B
:106ED00000CE4FF00005E3FB00E54FF00006E4FBB9
:106EE000005604EE107A10EE900A4FF00007E1FB16
:106EF0000087E2FB6097E3FB60A7E4FB60B712EE5C
:106F0000900AE1FB60C7E2FB60E7E3FB6057E4FB4C
:106F1000606704EE908A11EE100A4FF00008E1FB62
:106F20000098E2FB60A8E3FB60B8E4FB60C813EEE6
:106F3000100AE1FB60E8E2FB6058E3FB6068E4FBF9
:106F4000607805EE109A11EE900A4FF00009E1FB0F
:106F500000A9E2FB60B9E3FB60C9E4FB60E913EE62
:106F6000900AE1FB6059E2FB6069E3FB6079E4FBB6
:106F7000608905EE90AA17EE101A01F110011EC9E2
:106F800010EE100A4FF0000AE1FB00BAE2FB60CA03
:106F9000E3FB60EAE4FB605A12EE100AE1FB606A70
:106FA000E2FB607AE3FB608AE4FB609A06EE10BACB
:106FB00010EE900A4FF0000BE1FB00CBE2FB60EB20
:106FC000E3FB605BE4FB606B12EE900AE1FB607B2D
:106FD000E2FB608BE3FB609BE4FB60AB06EE90CAD8
:106FE00011EE100A4FF0000CE1FB00ECE2FB605CDC
:106FF000E3FB606CE4FB607C13EE100AE1FB608C49
:10700000E2FB609CE3FB60ACE4FB60BC07EE10EAD3
:1070100011EE900A4FF0000EE1FB005EE2FB606EA5
:10702000E3FB607EE4FB608E13EE900AE1FB609E62
:10703000E2FB60AEE3FB60BEE4FB60CE4FF02601F6
:1070400053EC142A4FF00000E6FB0120E7FB61300F
:1070500057EC156AE8FB6160E9FB617059EC168A30
:10706000EAFB6180EBFB619017EE10AAECFB61A0DC
:10707000EEFB615000FB01F0121853F1000356F1D2
:10708000000657F1000758F1000859F100095AF1BC
:10709000000A55F1000B60EB000021EA00000244F9
:1070A00017EE900A80E8CC0FBDE8F08F2DE9F007CD
:1070B00091E8F0174EF6A1514FEA4101A4FB0123DC
:1070C0004FF00004E5FB01344FF00005E6FB0145FD
:1070D0004FF00006E7FB01564FF00007E8FB0167A1
:1070E0004FF00008E9FB01784FF00009EAFB018945
:1070F0004FF0000AECFB019A4FF026010AFB01FA5F
:1071000012EB0A0253F1000354F1000455F100059B
:1071100056F1000657F1000758F1000859F100092F
:107120006AEB0A0A21EA0A010A4480E8FC03BDE886
:10713000F00770472DE9F00390E8F8134FEAEC727E
:1071400002F013022CF0004C02F11301591854F113
:10715000000155F1000156F1000157F1000158F10D
:10716000000159F100015CF100014FEAE17101F009
:10717000130111445B1854F1000455F1000556F158
:10718000000657F1000758F1000859F100094CF1C9
:10719000000C2CF0004C80E8F813BDE8F0037047B9
:1071A0002DE9F05F0546002092469B46884606463C
:1071B000814640241BE0284641464746224600F0CF
:1071C000CAF953465A46C01A914110D3114618467F
:1071D000224600F047F82D1A67EB01084F46224679
:1071E0000120002100F03EF817EB00094E41201E5F
:1071F000A4F10104DFDC484631462A464346BDE897
:10720000F09F2DE9F0410024061B254671F1000690
:1072100005DA01240027D0EB070067EB0101161EF9
:1072200073F1000605DA0027D2EB0702012567EBB0
:107230000303FFF7B5FF86460E4617469C46AC4251
:1072400004D00025D0EB050E65EB010624B100202B
:10725000D2EB000760EB030C704631463A466346BA
:10726000BDE8F081202A04DB203A00FA02F1002078
:1072700070479140C2F1200320FA03F31943904074
:1072800070470000004870472C33040010B540EAF6
:1072900001040346A40703D009E010C9121F10C35C
:1072A000042AFAD203E011F8014B03F8014B521EF5
:1072B000F9D210BDD2B201E000F8012B491EFBD279
:1072C00070470022F6E710B513460A4604461946F1
:1072D000FFF7F0FF204610BDCAB2401E10F8011F94
:1072E0008A4202D00029F9D100207047421C10F8D0
:1072F000011B0029FBD1801A704710B5002200E065
:10730000521C835C8C5CA34201D1002BF8D1D8B213
:10731000E1B2401A10BD30B504460020034600E03B
:107320005B1C934203D2E05CCD5C401BF8D030BDC7
:10733000034611F8012B00F8012B002AF9D1184659
:1073400070472DE9FE4F81EA030404F0004421F068
:10735000004100944FF0000B23F0004350EA010479
:107360005ED052EA03045BD0C3F30A54C1F30A555A
:107370002C44A4F2F3340194A0FB0254C1F3130192
:1073800041F48011C3F3130343F4801301FB02445F
:1073900000FB034E840A970A44EA815447EA835764
:1073A000A4FB076802958D0A05FB07854FEA932C1D
:1073B00004FB0C542705029D4FEA065847EA16378E
:1073C000B5EB08056EEB070C870E920E47EA8117A6
:1073D00042EA8312A7FB0201B6EB0B0164EB000447
:1073E0002B0D43EA0C335E1844EB1C50DA46514631
:1073F000E7FB0201C5F313044FEA0B3343EA1453CE
:107400004FEA0432019C43EA0603A4F10C040294FF
:10741000009CCDE900B400F0BDF803B0BDE8F08FEA
:1074200000200146F9E72DE9F04D81EA030404F05C
:10743000004B21F0004514464FF0000A23F00041B4
:1074400050EA050220D054EA01021DD0C5F30A57C4
:107450000246C5F31303C1F31300C1F30A5640F407
:10746000801543F48013A7EB0608101BD64608F2DC
:10747000FD3873EB050002D308F1010801E0921812
:107480005B41B8F1000F03DA00200146BDE8F08D42
:1074900000204FF48011064684460EE0171B73EB64
:1074A000050705D3121B63EB050306434CEA010CE9
:1074B00049084FEA300092185B4150EA0107EDD1CC
:1074C00052EA030012D082EA040083EA050108436D
:1074D00005D0101BAB4106D20122002306E000229A
:1074E0004FF0004302E06FF0010253101AEB060068
:1074F0004CEB085110EB0A0041EB0B01BDE8F04DDD
:1075000000F039B800F0004230F000400AD0C10D60
:1075100001F56071C0F3160042EA0151C20840074C
:107520001143704700200146704730B50B460146B5
:1075300000202022012409E021FA02F59D4205D312
:1075400003FA02F5491B04FA02F52844151EA2F1BC
:107550000102F1DC30BD202A04DB203A21FA02F0DE
:107560000021704721FA02F3D040C2F1200291407D
:1075700008431946704710B5141E73F1000408DA69
:10758000401C41F1000192185B411A4301D120F0E7
:10759000010010BD2DE9F04D92469B4611B1B1FAA4
:1075A00081F202E0B0FA80F220329046FFF75AFEF4
:1075B00004460F4640EA0A0041EA0B0153465A4688
:1075C000084313D0114653EA010019D0C8F1400214
:1075D0005046FFF7C0FF05460E4650465946424604
:1075E000FFF740FE084305D0012004E0204639465D
:1075F000BDE8F08D0020054346EAE0762C43374392
:107600000A986305E40AA0EB08000022FD0A44EA98
:1076100047540A3002D500200146E9E70105101958
:107620006941DDE9084500196941BDE8F04DA2E76F
:107630002DE9FE4F804681EA0300C00F0C46009002
:1076400021F0004123F00045B8EB0200A94105D22A
:107650004046214690461C460B46024623F0004019
:10766000104347D0270DC7F30A00C3F30A51029015
:10767000401A019040286BDAC3F3130040F4801BDA
:107680000098924620B10023D2EB030A63EB0B0B68
:1076900001985946C0F140025046FFF7E3FD064607
:1076A0000D4650465946019A00F0ACF810EB080020
:1076B0006141002487EA115284EAE7731A4340D0FB
:1076C000009A62B3019A012A4FEA075215DC001BA7
:1076D00061EB02014FF0004202EA0752CDE900429D
:1076E000001C41F5801132462B46FFF753FF03B0D3
:1076F000BDE8F08F40462146F9E7001B61EB02012F
:10770000001C41F5801300185B412018A2F50017FA
:1077100047EB030140EAD570B6196D4111E06D08E1
:107720004FEA360645EAC0754FEA0752001B61EB87
:107730000201001C41F5801149084FEA3000001990
:10774000514132462B4603B0BDE8F04FFFF713BF5F
:107750000098012240000023D0EB020263EBE073AB
:10776000009821464FEAE074B8EB000061EB040199
:10777000E9E783F000435BE781F0004158E7C1F39C
:107780000A52C1F3130140F2FF3341F480119A42CF
:1077900002DA00200146704740F233439A42A2F2D7
:1077A000334202DC5242FFF7D6BEFFF75BBD00005A
:1077B00030B5041E71F1000404DB4FF00044404278
:1077C00064EB0101141E73F1000405DB1C464FF04D
:1077D0000043524263EB0403994208BF904230BD1C
:1077E000064C074D06E0E06840F0010394E807000E
:1077F00098471034AC42F6D3FEF706FD185B040040
:10780000385B0400202A06DBCB17203A41FA02F04D
:1078100043EAE07306E041FA02F3D040C2F12002ED
:10782000914008431946704770B58C1810F8015BF9
:1078300015F0070301D110F8013B2A1106D110F809
:10784000012B03E010F8016B01F8016B5B1EF9D10D
:107850002B0705D40023521E0DD401F8013BFAE793
:1078600010F8013BCB1A921C03E013F8015B01F8FE
:10787000015B521EF9D5A142D8D3002070BD000093
:107880002DE9F0410446B0B00D460A46684604F1C1
:107890002007002100F0C0F804F140083A462146D4
:1078A00010A804F16006FFF7F3FA4146324618A823
:1078B000FFF7EEFA4246394620A8FFF7E9FA3246CA
:1078C000214628A8FFF7E4FAEB0F20466A4610A9E4
:1078D00000F034F930B0BDE8F08100BF2DE9F0418F
:1078E0000446B0B00D460A46684604F1200701215F
:1078F00000F092F804F140083A46214610A804F13D
:107900006006FFF7C5FA4146324618A8FFF7C0FAED
:107910004246394620A8FFF7BBFA3246214628A83E
:10792000FFF7B6FAEB0F20466A4610A900F006F9F9
:1079300030B0BDE8F08100BF2DE9F041B0B00446A1
:1079400000F1200768460D4604F1400800F098F861
:1079500004F160063A46214610A8FFF799FA41461D
:10796000324618A8FFF794FA4246394620A8FFF796
:107970008FFA3246214628A8FFF78AFAEB0F2046F5
:107980006A4610A900F0DAF830B0BDE8F08100BF17
:1079900070B5A0B0044601F1200668460D46FFF719
:1079A00076FA314608A8FFF772FA05F1400110A8EF
:1079B000FFF76DFA10AA11461046FFF7F7F969466E
:1079C00018A800F007FC324629462046FFF7EEF9DA
:1079D00021462046FFF75BFA6A4621462046FFF71C
:1079E0001DFA04F1400508AA21462046FFF716FAC1
:1079F000284608AA18A9FFF7D9F910AA294604F1C0
:107A00002000FFF70BFA08AA18A904F16000FFF79D
:107A100005FA20B070BD00BF2DE9F04102EBE27520
:107A200085EAE27582B00C460021064600F1200787
:107A300000F0C6FB691EC90F384600F0C1FB0F4BB2
:107A400003EB442440344FF0010885EA0802013A70
:107A5000D20F21463046019208F10108FEF79AFD47
:107A600004F12001019A3846FEF794FDB8F1090FA0
:107A700004F14004E9D102B0BDE8F08138540400BB
:107A80002DE9F04101EBE176074682B086EAE17626
:107A9000002100F095FB07F12008711EC90F404638
:107AA00000F08EFB0C4D012486EA0402013AD20F4D
:107AB0002946384601920134FEF76CFD05F120019C
:107AC000019A4046FEF766FD092C05F14005EBD111
:107AD00002B0BDE8F08100BF78580400F0B5D1E9EC
:107AE00008328E6ACD69144F8DB00C46110F41EAF1
:107AF00006114FEA137C1B014CEA021C43EA157382
:107B00003A460546029104A86946360FCDF804C0EE
:107B100000930396FEF7B4FD009B21461B0704AAC1
:107B200028460B93FEF716FDEA693946D20F284620
:107B3000FEF730FD0DB0F0BD185404002DE9F04102
:107B40000D46A2B01646044620312A4602A81F461A
:107B500006F120080191FFF761F901992A460AA868
:107B6000FFF724F94146324612A8FFF757F941467C
:107B700032461AA8FFF71AF93A461AA912A8FEF7D0
:107B800074FD02A912AA0846FFF782F90AA91AAAE7
:107B90000846FFF77DF94246314612A8FFF778F90B
:107BA00012A905F160020846FFF772F912A908460A
:107BB000144AFFF76DF905F1400211461AA8FFF7C4
:107BC000F5F802AA0AA92046FFF728F904F12005D2
:107BD00002AA0AA904F16000FFF7E8F84034284639
:107BE00012AA1AA9FFF71AF912AA1AA92046FFF732
:107BF000DDF83A4629462046FEF737FD22B0BDE8BB
:107C0000F08100BF785A04002DE9F047CC7F91F84D
:107C100000A0C2B00B4604F03F04D1F80110D3F825
:107C200009E0D3F80DC0D3F80580D3F81560D3F878
:107C30001950D3F81170CDF8491044F040041146A2
:107C400081462AF0070202A893F81DA09B7FCDF879
:107C500051E0CDF855C08DF866308DF867408DF84D
:107C60004820CDF84D80CDF85D60CDF86150CDF85D
:107C700059708DF865A000F087FA202202A91AA891
:107C8000FEF73CFE02A8012100F09AFA0AA80021A2
:107C900000F096FA1AA922A82022FEF72FFE2AA8A1
:107CA000012100F08DFA1AAE0DF1480806240025D6
:107CB00016F8017D47FA04F32A4603F001056A40ED
:107CC00022A902A80192FEF7D0FC019A2AA90AA8CB
:107CD000FEF7CBFC0AAA02A932A8FFF767F80AAAA6
:107CE000104602A9FFF79AF82AAA22A93AA8FFF794
:107CF0005DF82AAA104622A9FFF790F83AA908468B
:107D00000AAAFFF7C5F82AA9084632AAFFF7C0F861
:107D10003AAA2AA922A8FFF749F82AA93AAA0846A6
:107D2000FFF77CF822A90846FFF7B1F82AA9084610
:107D3000FFF7ADF82AA91AAA0846FFF7A9F832A951
:107D40000846FFF7A4F80AA93AA8FFF7A0F83AAA4C
:107D500032A902A8FFF79CF832A93AAA0846FFF711
:107D60005DF832A90AA8FFF7A1F90AA908463AAABC
:107D7000FFF71CF80AA9013C32AA0846FFF788F869
:107D8000631C97D146454FF0070491D10AA90846D4
:107D9000012200F031FA02A90AAA0846FFF778F892
:107DA00002A9484600F03AFB42B0BDE8F08700BFA8
:107DB000014AFFF729BF00BFF850040070B500F179
:107DC000200690B00D46044600F05CFB05F1200152
:107DD000304600F057FB214608A8FEF709FE08A927
:107DE00008460C4AFEF798FD08A922460846FEF709
:107DF00000FE08A9084A0846FEF78EFD314668468F
:107E0000FEF7F6FD694608A82022FEF757FD013867
:107E100010B070BD985A0400B85A04002DE9F04320
:107E2000BBB089468046114612A8514AFEF792FB24
:107E30005049024612A8FEF7ADFB199E4C4900EAD4
:107E4000D6760746C6F1010212A8FEF7A3FB199DDC
:107E50004A462AA91AA8ED4301F014F8ED0F22A909
:107E6000C5F10102084600F0F1FAC7F10107FE244E
:107E700002AA1AA92AA800F0B9FF62113AAB03EBD3
:107E8000820204F01F0152F8A03CCB402A4603F0C6
:107E900001056A402AA91AA80192FEF7E6FB019A99
:107EA00032A922A8FEF7E1FB013C2AA91AA800F09A
:107EB00037FF631CDCD1C5F101020AA822A900F03A
:107EC000C5FA754002AA1AA92AA800F08FFF2AA9AC
:107ED0002A461AA8FEF7C9FB2A4632A922A8FEF7AD
:107EE000C4FB0AA902AA0846FEF783FD0AA90846B0
:107EF00000F0E2FA0AA908F1200409F1200208467C
:107F0000FEF777FD22A90AAA2046FEF772FD0AAA0B
:107F10001AA902A8FEF76DFD02A90846FEF768FD42
:107F20001AAA02A90AA8FEF764FD214602A8FEF7D4
:107F30005FFD0AAA02A91046FEF72DFD0E4A0AA906
:107F400002A8FEF728FD20462021FEF7CAFC0AA958
:107F50004342024602A81F43FEF787FB4046074AFA
:107F600002A9FEF746FD38463BB0BDE8F08300BFEE
:107F7000F85A0400D8530400B85A0400F853040017
:107F80000A460149FFF74ABF1851040000F044BBFC
:107F900038B504460D4600F03FFB05F1200104F121
:107FA0002000BDE8384000F037BB00BF70B5A8B076
:107FB00005466846164600F09DFB3146044618A863
:107FC000FFF7FCFE6A46034618A908A81C43FFF702
:107FD00025FF08A904432846FFF7D8FF204628B00C
:107FE00070BD00BF30B599B00546684600F082FB11
:107FF0006946044608A8FFF7C3FF08A904432846BA
:10800000FFF7C6FF204619B030BD00BF10B52022D3
:10801000B0B004460DEB020000F096FB9DF83F3037
:108020009DF8202003F07F0343F0400322F0070275
:1080300008A968468DF83F308DF8202000F006FB37
:10804000694618A800F028F818A9204600F002F8A0
:1080500030B010BD30B599B004460D4610A840317F
:10806000012200F0C9F8294610AA6846FEF710FF61
:1080700010AA05F1200108A8FEF70AFF08A920466A
:1080800000F0CCF9684600F093F8E37F83EAC01073
:10809000E07719B030BD00BF2DE9F041B0B0E8463F
:1080A0000446404600F002FB04F140069DF93F10F3
:1080B0002046FFF7E5FC3046012100F081F804F18D
:1080C00020070DF11505214610A8FFF761FC18AA3D
:1080D00010A92046FEF7DCFE28AA20A93846FEF7A4
:1080E000D7FE20AA18A93046FEF7D2FE214610A8D6
:1080F000FFF74EFC18AA10A92046FEF7C9FE28AAD1
:1081000020A93846FEF7C4FE20AA18A93046FEF77B
:10811000BFFE214610A8FFF73BFC18AA10A9204675
:10812000FEF7B6FE28AA20A93846FEF7B1FE20AA1F
:1081300018A93046FEF7ACFE214610A8FFF728FC30
:1081400015F9011D10A8FFF79BFB95F9151010A854
:10815000FFF7C4FB95F92A1010A8FFF7EDFB18AA4A
:1081600010A92046FEF794FE28AA20A93846FEF75B
:108170008FFE20AA18A93046FEF78AFEA845A2D194
:1081800030B0BDE8F08100BF0B6803604B6843600E
:108190008B688360CB68C3600B6903614B69436183
:1081A0008B698361CB6923F00043C361704700BFD3
:1081B00010B50446FEF7BEFF206800F0010010BDB8
:1081C0000023C0E90013C0E90233C0E90433C0E969
:1081D0000633704730B589B0002400250A46694649
:1081E000CDE90045CDE90245CDE90445CDE9064597
:1081F000FEF714FE09B030BDF0B5A1B004466846E4
:1082000016460D46FEF743FE694618A8FEF73FFEE8
:1082100018A90846FEF73BFE2A4618A908A8FEF74B
:1082200037FE6A4608A96846FEF732FE694618A876
:10823000FEF72DFE08AA104618A9FEF729FE08A988
:1082400018A8FEF724FE18A90846FEF720FE18A974
:108250000846FEF71CFE18A90846FEF718FE18A9E6
:108260000846FEF714FE08AA18A91046FEF710FEED
:10827000022708A900E0012718A8FEF708FE18A9A0
:108280000846FEF704FE18A90846FEF700FE18A9E6
:108290000846FEF7FCFD18A90846FEF7F8FD012F79
:1082A00018A9E8D110A808AAFEF7F2FD042710A922
:1082B00018A8FEF7ECFD18A90846FEF7E8FD18A976
:1082C0000846FEF7E4FD18A90846FEF7E0FD18A9E8
:1082D0000846FEF7DCFD013F18A9E9D110AA0846BF
:1082E000FEF7D6FD022700E0012718A90846FEF791
:1082F000CEFD18A90846FEF7CAFD18A90846FEF7E4
:10830000C6FD18A90846FEF7C2FD18A90846FEF7E3
:10831000BEFD012FE8D118A908AA10A8FEF7B8FDE4
:108320000A2710A918A8FEF7B2FD18A90846FEF7FB
:10833000AEFD18A90846FEF7AAFD18A90846FEF7E3
:10834000A6FD18A90846FEF7A2FD013F18A9E9D12C
:1083500010AA08A8FEF79CFD142708A918A8FEF784
:1083600096FD18A90846FEF792FD18A90846FEF7E3
:108370008EFD18A90846FEF78AFD18A90846FEF7E3
:1083800086FD013F18A9E9D108AA0846FEF780FD3D
:108390000A2718A90846FEF77AFD18A90846FEF72D
:1083A00076FD18A90846FEF772FD18A90846FEF7E3
:1083B0006EFD18A90846FEF76AFD013FE9D118A92C
:1083C000084610AAFEF764FD18A9084666B9FEF72C
:1083D0005EFD18A90846FEF75AFD2A4618A9204650
:1083E000FEF756FD21B0F0BDFEF751FD18A9084675
:1083F000FEF74DFD18A90846FEF749FD18A90846E5
:10840000FEF745FD18A90846FEF741FD6A4618A982
:108410002046FEF73DFD21B0F0BD00BF38B50C464B
:1084200005460846FEF786FE23682B6063686B608E
:10843000A368AB60E368EB6023692B6163696B61E0
:10844000A369AB61E369EB6138BD00BF70B588B06B
:1084500004460D46684620211646FEF756FA0023CC
:108460002946204620220093FEF748FA2A4669460C
:108470006846FEF790FA324669462046FEF7F5F860
:1084800008B070BD0B681BBAC3614B681BBA83612F
:108490008B681BBA4361CB681BBA03610B691BBABB
:1084A000C3604B691BBA83608B691BBA4360CB699D
:1084B0001BBA0360704700BF70B598B00C46054604
:1084C00010A8FEF795FA224610A96846FEF791FA21
:1084D000694610A8FEF78CFA10A90846FEF788FA3C
:1084E0006A4610A908A8FEF784FA08A910A8FEF7A2
:1084F0007FFA10A90846FEF77BFA10A90846FEF796
:1085000077FA10A90846FEF773FA10A908AA0846D8
:10851000FEF76FFA10A90846FEF76AFA10A9084696
:10852000FEF766FA10A96A4608A8FEF762FA052661
:1085300008A910A8FEF75CFA10A90846FEF758FA39
:10854000013E10A9F5D108AA0846FEF752FA052601
:1085500010A90846FEF74CFA10A90846FEF748FA9B
:10856000013EF5D110A908AA0846FEF742FA10A963
:1085700008A8FEF73DFA08A90846FEF739FA08A947
:108580006A466846FEF735FA1026694610A8FEF7D7
:108590002FFA10A90846FEF72BFA013E10A9F5D1D3
:1085A00022460846FEF725FA402610A90846FEF79F
:1085B0001FFA10A90846FEF71BFA013EF5D110A9D3
:1085C0006A460846FEF715FA102610A90846FEF777
:1085D0000FFA10A90846FEF70BFA013EF5D110A9D3
:1085E0006A460846FEF705FA102610A90846FEF767
:1085F000FFF910A90846FEF7FBF9013EF5D110A9D5
:1086000008AA0846FEF7F5F9224610A92846FEF703
:10861000F0F918B070BD00BFCB691BBA03608B695D
:108620001BBA43604B691BBA83600B691BBAC360FA
:10863000CB681BBA03618B681BBA43614B681BBADA
:1086400083610B681BBAC361704700BFF0B54B076D
:108650008DB01AD1D1E90023D1E90245CDE900233B
:10866000D1E90467D1E90623CDE90245CDE90467E4
:10867000CDE906230022002300246946CDE9082322
:108680000A94FFF72BFA0DB0F0BD4C688A68CB68EE
:108690000E694D69019402928C69CA6903930B6853
:1086A0000093CDE90465CDE90642E3E7F0B4002587
:1086B000471E2C462E46E30814F0070F08BF51F85A
:1086C000235005F00F03334403F1080202F47F66E0
:1086D00001349B1B3F2C4FEA121607F8013F4FEA6B
:1086E0001515C2F30712E6D12A4480F83F20F0BCEA
:1086F000704700BF70B50B68124E1BBAC3614B6860
:108700001BBA83618B681BBA4361CB681BBA0361D8
:108710000B691BBAC3604B691BBA83608B691BBAB8
:108720004360CB691BBA0360324601460446FDF73D
:1087300011FF0546314620462A46FDF72BFF681EED
:1087400070BD00BFD85A04002DE9F04F0FF2E80BBE
:10875000DBE900AB0FF2E809D9E90089B3B0CDE954
:1087600000ABCDE902890FF2E00BDBE900AB0FF2C1
:10877000E009D9E90089CDE904ABCDE906890FF21A
:10878000D80BDBE900AB0FF2D809D9E90089CDE9B4
:1087900008ABCDE90A890FF2D00BDBE900AB0FF291
:1087A000D009D9E900890025CDE90CABCDE90E89C6
:1087B0000646319230955AB96F464FF0000C31465B
:1087C0003846CDF8C0C000F057F833B0BDE8F08FA0
:1087D0006F4638461446884600F0B0FB241A84469B
:1087E00044440028E9D0431E022B0FD920F0030097
:1087F0002044234610AA53F8041B42F8041B83426A
:10880000F9D12CF0030565452C44D8D032AB2B446C
:10881000227803F8882C6B1C9C45D0D932AA1344CB
:108820000235627803F8882CAC45C8D932AB1D44B8
:10883000A37805F8883CC2E708C9BCF367E6096A73
:108840003BA7CA8485AE67BB2BF894FE72F36E3CDF
:10885000F1361D5F3AF54FA5D182E6AD7F520E513C
:108860001F6C3E2B8C68059B6BBD41FBABD9831FF6
:1088700079217E1319CDE05BF0B5D0F8C030044605
:10888000C218581C8026702883B00D4682F84060BC
:108890006FD804F14001C0F17A03022BC0F17B07CD
:1088A0000FD900F14003234427F003021A440026A5
:1088B00043F8046B9A42FBD127F00303BB421844F0
:1088C00011D0231800227A2883F8402000F10103F8
:1088D00009D02344792800F1020683F8402002D011
:1088E000264486F84020D4F8C430580F5A0D84F836
:1088F000BB0084F8BC20580B5A09DB0084F8BD008B
:1089000084F8BE2084F8BF30204600F0A5FCD4E9EE
:10891000002312BA1BBA6A602B60D4E9022312BA90
:108920001BBAEA60AB60D4E9042312BA1BBA6A61CD
:108930002B61D4E9062312BA1BBAEA61AB61D4E910
:10894000082312BA1BBA6A622B62D4E90A2312BA4C
:108950001BBAEA62AB62D4E90C2312BA1BBA6A638F
:108960002B63D4E90E2312BA1BBAEA63AB6303B0DC
:10897000F0BD7F2862D8204400227E2B80F8402062
:1089800003F102015AD021447D2B03F1030081F849
:10899000402053D020447C2B03F1040180F8402078
:1089A0004CD021447B2B03F1050081F8402045D0B9
:1089B00020447A2B03F1060180F840203ED0214468
:1089C000792B03F1070081F8402037D02044782B21
:1089D00003F1080180F8402030D02144772B03F1C7
:1089E000090081F8402029D02044762B80F84020CF
:1089F00003F10A0122D02144752B03F10B0081F809
:108A000040201BD02044742B03F10C0180F840203F
:108A100014D02144732B03F10D0081F840200DD0B8
:108A20002044722B03F10E0180F8402006D021442F
:108A3000702B81F8402001D184F8BF2004F140015F
:108A40002046019100F008FC7A2801997FF623AFB7
:108A500049E700BF2DE9F04F93B0A1F108030C9353
:108A6000D2E90EB30D93136B0393536B0493936A84
:108A70000593D36A069393690E93D3690F93936812
:108A80000193D368099313690793D2E90876D2E971
:108A9000005A53690893034680330A901193009556
:108AA000B44602975646CDF840B008E000990093CE
:108AB0000B9B0996019106460293CC461F460A99E4
:108AC0000C9C059DF4E90289F1E802ABB80BBB0CE4
:108AD0000A910C9440EA8C40039CF90543EA8C33DC
:108AE0001AEB080E83EA000341EA5C214BEB090B09
:108AF0004B4084EA05094FEA9C304FEA9C414FEA1B
:108B0000CC58049D41EA873148EA572840EA87401B
:108B100009EA0709069F484085EA07040399009F70
:108B200004EA0C0413EB0E0389EA010984EA050444
:108B300080EA08003D464FEA17784FEA877E4FEA01
:108B40004761019F4BEB000013EB090344EB00006E
:108B5000B946109C2F4645EA090B079D1B194FEAA1
:108B600016794FEA86740BEA050B49EA07193D4668
:108B700044EA9704019F05EA070A0D9D099F40EB0F
:108B8000050528460E9D5D1948EA06180B954EEA24
:108B9000960E009D88EA0E0E4FEA466848EAD51800
:108BA00041EAD611089D8EEA01014BEA0A0A46EA1B
:108BB000070E06EA070B0F9F89EA04040EEA050E6A
:108BC000059D156340EB0709079D069F576311EB51
:108BD0000A0A84EA08080399049C9163D4639561A6
:108BE000029F1091C2E90A7C019F1761009F0599BD
:108BF0000391C2E902760B9F069917624EEA0B0EAB
:108C0000029F089D049148EB0E0E0799D5611AEB5F
:108C10000303CDE9057C099D019F0E914EEB0000F9
:108C200008990D940F91C2E900305561C2F8249063
:108C3000079708950A99119CA1427FF437AF13B0AA
:108C4000BDE8F08F2DE9F04FA0F1080685B00025B2
:108C5000AA1E02F00F022B46013500EBC20105F0FF
:108C60000F0450F832E04A6850F83410073B00EB2C
:108C7000C40403F00F0300EBC3034FEADE474FEADF
:108C8000CE0BD4F804C04BEA527BD3E9004A47EA42
:108C900042374FEA9E13F6E9028987EA0B0743EA57
:108CA00082637B404FEAD24B0393D30014EB08045A
:108CB000CDE900894BEA4E3B4FEA112843EA5E7E3C
:108CC0004FEA510348EA0C6843EACC738BEA0E0E74
:108CD0004FEA5C094FEA1C2B83EA080349EAC17991
:108CE0004FEAD1184BEA016B019F039948EA4C689F
:108CF0004AEB070A8EEA9212611883EA080389EAAE
:108D00000B044AEB020284EADC1CC91842EB0C0299
:108D1000102DC6E900129BD105B0BDE8F08F00BF51
:108D2000F0B599B004460D460A4601466846FDF77F
:108D300032FE69466846FDF75BFE21466A4608A892
:108D400005F1200604F12007FDF753FE6A46294687
:108D50006846FDF74EFE3946324610A8FDF7DCFDA9
:108D6000324639463046FDF716FE31462846FDF7B5
:108D70003FFE6A4608A92046FDF7CEFD2246294659
:108D80002846FDF708FE6A4608A96846FDF703FE77
:108D90006A4639463846FDF72CFE2A4608A9684639
:108DA000FDF7F9FD6A4631463046FDF722FE3A46A8
:108DB00031463046FDF7EFFD10A96846FDF718FE75
:108DC000224669462046FDF7E6FD08A922460846E8
:108DD000FDF7E1FD10A908AA0846FDF70AFE3A468C
:108DE00010A93846FDF7D7FD19B0F0BD2DE9F041C7
:108DF0000C4688B005469046014622466846FDF777
:108E0000CAFD69466846FDF7F3FD6A4629462846CD
:108E100004F12006FDF7EDFD05F120076A46214625
:108E20006846FDF7E6FD324630463946FDF7B3FDAC
:108E300031462046FDF7DCFD2A4621462046FDF757
:108E4000AAFD6A4621462046FDF7A5FD6A46294649
:108E50004046FDF7A0FD424639463846FDF7C9FDBC
:108E6000224629466846FDF796FD6A463146304659
:108E7000FDF7BFFD3A4631463046FDF78CFD08B0A0
:108E8000BDE8F0812DE9F04188B00C46064602F1BC
:108E90002001684606F120079046FDF7A9FD6A46C5
:108EA00069466846FDF738FD38466946FDF7A0FD7E
:108EB0003A463946384604F12005FDF72DFD6A464D
:108EC00069466846FDF728FD28464146FDF790FDB6
:108ED0006A4641463046FDF78CFD2A4629466846DB
:108EE000FDF71AFD2A4669466846FDF715FD124A48
:108EF00069466846FDF710FD69462046FDF778FD96
:108F0000324621462046FDF746FD324621462046A0
:108F1000FDF741FD224631462846FDF73CFD6A46F5
:108F200029462846FDF765FD3A4629462846FDF7BD
:108F300032FD08B0BDE8F081985A04002DE9F04FE9
:108F4000BDB07F2A0B9240F279818246A2F1800463
:108F5000DAF818300193DAF81C300293DAF820308E
:108F60000393DAF824300493DAE90AB3D0E9002055
:108F7000DAE9046524F07F0489468034DAE90217CF
:108F80004C440593DAE90D8EDAF8303006930A94F2
:108F9000DAF83C30CDF81CB014462A463D46174658
:108FA000D9F80C200C94D9F8084008940D9011972A
:108FB000D9F81400099017BA089A109616BA099AA7
:108FC0000F9515BA019A1292029A1392039A14926B
:108FD000049A1592079A1692059A1792069AD9F84A
:108FE00004B0D9F800C0D9F81040D9F81C000E918F
:108FF000D9F81810CDE91828CDE91AE3D9F8483086
:109000000193D9F854300293D9F850300393D9F82A
:109010005C300493D9F858300593019BD9F820802F
:10902000D9F82CE0D9F84C209BFA8BFB9CFA8CFCED
:1090300024BA00BA09BA1BBACDE91CBCCDE91E7628
:10904000D9F824B0D9F828C0D9F83470D9F83060EC
:10905000CDE92054CDE92201D9F83C50D9F8384067
:10906000D9F84400D9F840102F93029B1BBA3093D3
:10907000039B1BBA3193049B1BBA3293059B98FA4E
:1090800088F89EFA8EFE9CFA8CFC3FBA36BA2DBA4E
:1090900024BA1BBA9BFA8BFBCDE926ECCDE92876E6
:1090A000D9F860E0D9F86CC0D9F86870D9F8746064
:1090B0003393CDE92A54D9F87830D9F87050D9F8DB
:1090C0007C40CDE924B8D9F8648000BA09BA12BA54
:1090D0009EFA8EFE9CFA8CFC1BBACDE92C012E92D6
:1090E0001CA90CAA574898FA88F83FBA36BA2DBA84
:1090F00024BACDE9348ECDE936C7CDE93865CDE95E
:109100003A43FFF7A7FC1CA8FFF79CFD0CAA1CA97B
:109110004D48FFF79FFC1CA8FFF794FD0CAA1CA963
:109120004A48FFF797FC1CA8FFF78CFD0CAA1CA966
:109130004748FFF78FFC1CA8FFF784FD45480CAAA1
:109140001CA9FFF787FCDDE90C40DAF80020DAF80B
:1091500008300E99119F1419DAF80420CAF800405B
:10916000DAE9035642EB000059180F9BDAF8242085
:1091700043EB0505109BF618DAF8143043EB0707AC
:10918000DAF81830CAF814709C46129B1CEB0303E3
:109190000193DAF81C309C46139B4CEB030CDAF875
:1091A0002030CDF808C09C46149B1CEB030C159B8B
:1091B000CDF80CC043EB0202019B0492CAE9010105
:1091C000CAE90356CAF81830029BCAF81C30CAE92B
:1091D00008C2169BDAF82820D3180793179ACAF802
:1091E0002830DAF82C3053410593189ACAF82C30FD
:1091F000DAF830309B180693199ACAF83030DAF84A
:10920000343043EB0208DAF838201B9BCAF834806C
:1092100094461A9A1CEB020EDAF83C2042EB030348
:109220000A9A09F180099145CAE90EE37FF4B8AEC4
:109230000B9B03F07F003DB0BDE8F08F10463DB0C2
:10924000BDE8F08F58510400D85104005852040072
:10925000D8520400585304002DE9F041D1F804C05D
:109260000D68CC688A684B690F69CE69B0B08046DA
:109270009CFA8CFC2DBA24BA12BA1BBACDE910C5DF
:10928000CDE913231294D8E90223D8E900453FBA67
:1092900036BACDE91576CDE90045D8E90467D8E9B5
:1092A0000645CDE90223D8E90823CDE90467CDE9D5
:1092B0000645D8E90A67D8E90C45CDE9082388694D
:1092C000D8E90E2300BACDE90A67CDE90C4517901D
:1092D000CDE90E23CF6A8E6A4D6B0C6BC86B8A6B1F
:1092E0004B6CD1F824E0D1F820C03FBA36BA2DBA81
:1092F00024BA00BA12BA1BBA1A971B960F6CCE6C1E
:109300001C951D948D6C4C6D1E901F92086DCA6D3E
:1093100020938B6D9EFA8EFE9CFA8CFC3FBA36BA77
:109320002DBA24BA00BA12BA1BBACDE92176CDE91A
:109330002354CDE92502CDE918EC2793D1F864E058
:10934000486FCA6F534CD1F860C0CF6E8E6E0D6FF0
:109350008B6F00BA11BA9EFA8EFE9CFA8CFC1BBA77
:109360006A462C902E91204610A93FBA36BA2DBAE3
:109370002F93CDE928ECCDE92A762D95FFF76AFBEE
:1093800010A8FFF75FFC6A4610A904F18000FFF700
:1093900061FB10A8FFF756FC6A4610A904F580701F
:1093A000FFF758FB10A8FFF74DFC6A4610A904F51B
:1093B000C070FFF74FFB10A8FFF744FC6A4610A9E6
:1093C00004F50070FFF746FBD8F80000009DD8F8C0
:1093D0000410019ED8F80830029CD8F80C20D8F868
:1093E0001070401946EB0101039DC8F80000049875
:1093F000C8F804101B190599D8F81440D8F818605B
:10940000C8F8083045EB0202069B079DC8F80C20FF
:109410003F1844EB0101D8F81C00089AC8F81070F6
:10942000D8F82070C8F81410F6180999D8F8243024
:10943000C8F8186045EB0000BA1841EB0303C8E90F
:109440000702C8F82430D8E90A01DDE90A56D8F83D
:1094500030300C9CD8F83420D8F83870401946EBDE
:1094600001010D9DC8F828000E98C8F82C101B1992
:109470000F99D8F83C40C8F8303045EB0202381854
:10948000C8E90D2044EB01010020C8F83C1030B0C1
:10949000BDE8F0815851040010B51448007800B9B7
:1094A00010BD1349134A891AC908012242EA014032
:1094B00011A10DF069FC002413E00C480078204154
:1094C00000F0010060B1104951F824200849094B0F
:1094D000C91AC908012343EA01400CA10DF05EFC42
:1094E000641C052CE9DB00BFDAE70000402B0020FC
:1094F000385C0400505B04004572726F7273206622
:109500006F756E643A0D0A00442B002020202D2038
:1095100025730D0A00000000014908607047000033
:10952000582B00201FB51048006810B9002004B067
:1095300010BD684600F022F808B90020F7E79DF852
:1095400000000AF0E1FC044634B1214606480068F8
:1095500000F0DDF80120EAE769460348006800F002
:1095600072F80120E3E70000582B002010B500BF7F
:10957000FFF7D8FF0028FBD110BD000010B5014651
:1095800019B11048D0F8080108B9002010BD0D48E5
:10959000D0F800010B4A02EB00141DCC81E81D003D
:1095A000084890F80001401C00F00F00054AC2F87E
:1095B00000011046D0F80801401EC2F80801012041
:1095C000E4E70000984C002010B54FF48671024883
:1095D000FDF777FE10BD0000984C002037B505461A
:1095E0001248D0F80801102801D300203EBD0F48D2
:1095F000D0F804010D4901EB00142570DDE90101EB
:10960000C4E9010108F044FCE060084890F8040156
:10961000401C00F00F000549C1F804010846D0F8CD
:109620000801401CC1F808010120DFE7984C002028
:109630001CB504460020009001902046DDE9001290
:10964000FFF7CCFF1CBD70B504460D4604B10DB943
:10965000002070BD0026206840B12068006928B154
:10966000206829460269204690470646204600F0B9
:109670003DF83046EDE770B504460D46164604B198
:1096800005B970BDE6600020206060602072294648
:10969000204607F0A1F800BFF3E770B504460E4678
:1096A00004B970BD00250BE054F8250038B154F81A
:1096B0002500406818B154F82510486880476D1C93
:1096C000B542F1D300BFECE710B5044604B910BDB4
:1096D000204600F00BF8206830B12068C06818B14F
:1096E0002068C1682046884700BFF0E710B50446EF
:1096F0000CB1207A00B910BD606818B120466168CD
:1097000007F06AF800206060207200BFF3E700B144
:1097100001B9704741600122027200BFF9E7000001
:109720002DE9F84F0026002000904FF480770125A6
:10973000002410E038460DF087F840B100BF2548FE
:109740000068284018B138460DF070F82E436D00BF
:10975000381D87B2641C082CECD34FF4BE700DF09A
:1097600073F850B14FF4BE700DF060F846F000464B
:109770006A46012100200CF05BFFF0B210B3012516
:1097800000241DE005EA0600C0B100BF124850F8F1
:109790002400C0F30420814600BF0F4850F8240085
:1097A000C0F301408246204605F056F88046B8F1E5
:1097B000000F02D051464846C04700BF6D00641CF0
:1097C000082CDFD306F0004010B1684612F0C6FB4B
:1097D000BDE8F88F046300401065004010B54FF4F9
:1097E00080700BF0AEFB80B14FF480700BF0B2FBD9
:1097F00001200BF0B9FB0D48407930B901200B492D
:10980000487108460168002088474FF482700BF0C9
:1098100098FB50B14FF482700BF09CFB02200BF0D0
:10982000A3FB024801680120884710BD642800207E
:1098300010B50249024809F083FB10BD84280020BE
:1098400000C0014010B54FF480700DF003FE00BF62
:1098500004480068C0B204462046034909688847A6
:1098600010BD000008D500405428002010B5034A60
:109870001068034A1168884710BD0000CC280020FA
:10988000C828002001490860704700006C2A0020A9
:10989000FEB54FF482700DF029FE002837D04FF44A
:1098A00082700DF02DFE6C4890F82E0018B16A48B9
:1098B00090F82F0058B300208DF8000066484068EB
:1098C000019065480189ADF80810C06818B90020FA
:1098D0006149087412E06048008B5F49488308467C
:1098E000C06848600846008B08810020C8600846B0
:1098F00090F82E0010B900200DF01AFE56480168AD
:10990000684688470020544981F82F0000BF52481C
:1099100090F82E00002852D04FF480700DF0E6FD34
:1099200000284CD04FF480700DF0EAFD4A48408B7F
:10993000494991F82D10884216DD4748408B464929
:1099400091F82D10401A444948830A4612890B4663
:109950005B8BD21A0B465B6803EB42000A4692F817
:109960002D100DF0AFFD23E03B48408B3A4991F8B4
:109970002D1088420FD13848C06860B101203649A7
:1099800081F82F00002048830A4692F82D10D068F5
:109990000DF098FD0CE03048408B2F4991F82D10C8
:1099A000884205D101202C4981F82F0000204883EE
:1099B0004FF482700DF0A4FD04200DF0B9FD4FF4BA
:1099C00088700DF093FD70B14FF488700DF098FD24
:1099D00000202149087402208DF800000846016823
:1099E0006846884700BF4FF48A700DF07FFD38B19C
:1099F0004FF48A700DF084FD0020174908742AE0A6
:109A00001548456924E0B5FA85F64FF00040F0406E
:109A10008543B00000F58C7420460DF067FDB8B1A9
:109A200020460DF06DFD01208DF80000A4F58C702E
:109A3000C0F3C7008DF80400A4F58C70012121EA61
:109A400090018DF80510044801686846884700BFFA
:109A5000002DD8D100BFFEBD0433002010B500F0AA
:109A6000B1FF10BD2DE9F047074688461646C246AD
:109A700007EB47011B4800EBC109D9F8140020B1DE
:109A8000012811D0022826D11EE0484600F0D2FF5E
:109A90000546B54201D2002405E03446324651461F
:109AA000484601F00EF818E0484600F0C3FF0546AE
:109AB000B54201D2284600E03046044622465146CF
:109AC000484600F0FEFF08E032465146484600F0A6
:109AD000BFFF044601E0002400BF00BF2046BDE8F0
:109AE000F0870000383B002010B50249024809F019
:109AF000E8F910BD843200200030004010B5034961
:109B00004FF0402017F0EEF810BD0000B0320020FA
:109B100070B54648006800287ED0002043490860A0
:109B20004348007818283BDA414A1278C2F11702FC
:109B3000D0B2404A1168404A137801229A400A4044
:109B400032B13E4A1268012383401A433B4B1A60EC
:109B5000394A537801229A400A4032B1374A526852
:109B6000012383401A43354B5A60334A93780122CC
:109B70009A400A4032B1314A9268012383401A4325
:109B80002E4B9A602C4AD37801229A400A4032B177
:109B90002A4AD268012383401A43284BDA6000BF67
:109BA00023480078401C22490870084600781B288A
:109BB0003ADB012022494860C8604FF4F85021493F
:109BC000086012F0ADFB00201F490870002429E056
:109BD0001A4850F8240000F4000028B1174850F843
:109BE000240040F07F4002E0144850F8240005466D
:109BF000164850F82400A0B1144850F8240085609D
:109C0000124850F8240005630120104951F824102F
:109C100081F838000D4900E006E051F8240005F015
:109C200065FB641C042CD3DB70BD000000410140C7
:109C3000D02A002010050050CC2A0020184900200E
:109C400000A0004008F50140D12A0020084900206A
:109C500010B50748007880F00100054908700548F4
:109C6000006820B10846007802490968884710BD9D
:109C7000082700200C27002010B50DF08DFE10BD28
:109C80007CB504460E461546062D18D32A463146A5
:109C9000684603F075FD9DF8020020F080008030DA
:109CA0008DF8020001208DF803008DF80440062194
:109CB000684603F05DFD0621684603F037FC7CBD75
:109CC00000B58DB00020099008900790069002A87A
:109CD00007F0B6FF01200C230022114600900AA8CD
:109CE00003F0E4FE06AB07AA08A909A800F0E2FC0D
:109CF00016F0F6FEC0B28DF83100079909980844B5
:109D000000B2ADF82C0006990898084400B2ADF8EE
:109D10002E009DED020ABCEEC00A10EE100AC0B281
:109D20008DF830009DF814109DF8320061F30100A9
:109D30008DF8320013F04AF8012800D100E000202D
:109D40009DF8321060F382018DF8321013F07CF927
:109D50009DF8321060F3C3018DF8321000F0C8FD99
:109D60009DF8321060F304118DF832100C210AA80E
:109D700003F0BFFE0C210AA803F0D8FB0DB000BD14
:109D800000B593B000200C900B900A90099005A8A4
:109D900007F056FF02A807F092FF012018230022C7
:109DA000014600900DA803F081FE09AB0AAA0BA999
:109DB0000CA800F07FFC0A990C98084400B2ADF89A
:109DC000380009990B98084400B2ADF83A009DEDAF
:109DD000050ABCEEC00A10EE100AC0B28DF83C00B5
:109DE00016F07EFEC0B28DF83D00BDF80800ADF85B
:109DF0003E00BDF80A00ADF84000BDF80C00ADF81B
:109E00004200BDF80E00ADF84400BDF81000ADF8FA
:109E10004600BDF81200ADF848009DF820109DF8EE
:109E20004A0061F301008DF84A0012F0CFFF0128CB
:109E300000D100E000209DF84A1060F382018DF807
:109E40004A1013F001F99DF84A1060F3C3018DF830
:109E50004A1000F04DFD9DF84A1060F304118DF892
:109E60004A1018210DA803F044FE18210DA803F094
:109E70005DFB13B000BD000070B504468CB100223C
:109E80004FF434110F48006802F06CF8054600BF2B
:109E90002E4626B100BF304601F0D6FF00BF00BFFE
:109EA00070BD0848006802F078F8054600BF2E46ED
:109EB00026B100BF304601F0C7FF00BF00BF00BFA2
:109EC000EEE700007428040070B504468CB100224F
:109ED0004FF400410F48006802F044F8054600BF07
:109EE0002E4626B100BF304601F0AEFF00BF00BFD6
:109EF00070BD0848006802F050F8054600BF2E46C5
:109F000026B100BF304601F09FFF00BF00BF00BF79
:109F1000EEE700003C27040070B504468CB1002237
:109F20004FF4A4710F48006802F01CF8054600BF0A
:109F30002E4626B100BF304601F086FF00BF00BFAD
:109F400070BD0848006802F028F8054600BF2E469C
:109F500026B100BF304601F077FF00BF00BF00BF51
:109F6000EEE70000782804000148024908607047C5
:109F70000090D0035C2B002010B50AF01BFA28B12A
:109F800092480088C0F30420914908600AF06EFAF4
:109F900010B19048904948670AF0A8FA30B18B4850
:109FA000E0380068C0F342308C4908600AF0CCFA0F
:109FB00028B18B48006820F08070894908600AF059
:109FC000E3FA48B10020874908604FF08041C1F8AA
:109FD00010018249091F08600AF004FB18B1032030
:109FE0007E49643108600AF01DFB68B105207E4996
:109FF000086001207C497831086000207A490831E6
:10A0000008603F20091F08600AF02CFB002855D08B
:10A010006E48E0300068754908606C48E4300068BC
:10A02000091D08606948E8300068091D0860674834
:10A03000EC300068091D08606448F0300068091DB4
:10A0400008606248F4300068091D08605F48F83015
:10A0500000686649203108605C48FC300068091DD2
:10A06000086063480068091D08606148001D0068B9
:10A07000091D08605E4808300068091D08605C48DA
:10A080000C300068091D08605948103000685749B5
:10A0900040310860564814300068091D0860544873
:10A0A00018300068091D086051481C300068091DFF
:10A0B00008604F4820300068091D08600AF04CF91C
:10A0C00030B14248CC38006800F04F004949086080
:10A0D0000AF09EF940B14848006800F0010018B14C
:10A0E0006FF00100444908600AF0E0F928B14348E4
:10A0F000006840F48060414908603948743800685D
:10A1000040F4700036497439086000BF00BF00BFDA
:10A11000BFF34F8F00BF00BF00BF00BF00BF00BF35
:10A12000BFF36F8F00BF00BF00BF3548006800F06D
:10A13000004028B93248001D006800F00040E8B334
:10A1400001203049086000BF2F4800680028FBD07C
:10A1500015202B49086000BF2B4800680028FBD061
:10A1600015212748001D016000BF2748006800280E
:10A17000FBD000202349086000BF23480068002866
:10A18000FBD000BF00BF00BF00BF00BFBFF34F8FB9
:10A1900000BF00BF00BF1248F038006800F4E06064
:10A1A0001A490843001D0E49F039086000BF00BF7E
:10A1B00000BFBFF34F8F00BF00BF00E003E000BF50
:10A1C00000BF00BFFDE7FFF7CFFE10BD2403001066
:10A1D000403501400DF0ADBA00C007403C050040DD
:10A1E000FCED00E00C0100401056004020C500408E
:10A1F00024040010E40E0040000400403C1700401E
:10A200000012001004E5014000E401400000FA05DE
:10A2100010B504461D480078A04200D110BD1B486F
:10A220000470002C25D01A48006818B9002017497E
:10A230000870F3E71749184A891AC908032242EA45
:10A24000014016A10CF0A0FD00201049486000213B
:10A250000E4A9160D160116151619161D1611062CA
:10A26000506201F031FE094988620846806AC8627E
:10A2700009E00849084A891AC908032242EA01404C
:10A2800011A10CF081FD00BFC8E70000904A00203A
:10A29000EC2A0020385C0400505B0400546F72719B
:10A2A00075652063616C6962726174696F6E207399
:10A2B00074617274656420286E6F6E2D626C6F63BA
:10A2C0006B696E6729000000546F727175652063B9
:10A2D000616C6962726174696F6E2073746F707003
:10A2E000656400002DE9F04F87B09848007810B9F8
:10A2F00007B0BDE8F08F01F0E7FD06909348816A52
:10A30000069801F0DBFDB0F5A02F0DD99049914AD8
:10A31000891AC908012242EA01408FA10CF034FDDC
:10A320000020FFF775FFE3E78848C16A069801F04F
:10A33000C5FDA42800D2DBE784490698C8628D4891
:10A34000006881688C48884705468A4800688168AB
:10A350008A48884706468748006881688848884751
:10A3600007468448006881688648884704467748DD
:10A37000D0E90220521940EBE5707449C1E902208E
:10A380000846D0E90420921940EBE670C1E90420A8
:10A390000846D0E90620D21940EBE770C1E9062053
:10A3A0000846D0E90831181941EBE471674AC2E95F
:10A3B00008011046406800F1010011464860084657
:10A3C00040684FF01401B0FBF1F201FB120060B9DC
:10A3D0005E494A685E495F4BC91AC908032343EACC
:10A3E0000140142368A10CF0E5FC5848406814288B
:10A3F0007ED35648D0F804C0C16880686246002306
:10A40000CDE90001FCF7FDFE804650480146D0F83A
:10A4100004C0D1E9040162460023CDE90001FCF744
:10A42000F0FE81464948D0F804C0C169806962469F
:10A430000023CDE90001FCF7E4FE82464348D0F852
:10A4400004C0416A006A62460023CDE90001FCF7BE
:10A45000D8FE83463E493F4A891AC908032242EA88
:10A46000014052A10CF090FC39493A4A891AC908B6
:10A47000032242EA0140424654A10CF08FFC3449C9
:10A48000344A891AC908032242EA01404A4655A1C2
:10A490000CF084FC2E492F4A891AC908032242EA8B
:10A4A0000140524655A10CF079FC2949294A891AE4
:10A4B000C908032242EA01405A4656A10CF06EFC3C
:10A4C0002D48C0F808802D48C0F808902C48C0F8E6
:10A4D00008A02C48C0F808B02648006841464269E8
:10A4E000254890472348006849464269234800E0D0
:10A4F00029E090471F48006851464269204890472C
:10A500001C480068594642691E489047CDF80880AB
:10A51000CDF80C90CDF810A0CDF814B002A902200F
:10A5200017F036FF0A490B4A891AC908032242EA82
:10A5300001403EA10CF028FC012043490870002096
:10A54000FFF766FE00BF00BFD2E60000904A002081
:10A55000385C0400505B0400546F727175652063B1
:10A56000616C6962726174696F6E2074696D656F88
:10A5700075742100EC2A0020504A0020604A002017
:10A58000704A0020804A0020546F72717565206304
:10A59000616C6962726174696F6E2070726F67724C
:10A5A0006573733A2025642F25640000546F72711F
:10A5B00075652063616C6962726174696F6E206396
:10A5C0006F6D706C657465643A00000020205365FF
:10A5D0006E736F7231206F66667365743A202564FE
:10A5E00000000000202053656E736F7232206F668A
:10A5F000667365743A2025640000000020205365CE
:10A600006E736F7233206F66667365743A202564CB
:10A6100000000000202053656E736F7234206F6657
:10A62000667365743A202564000000005A65726FF5
:10A63000206F666673657420736176656420746F3D
:10A6400020666C6173680000F02A00202DE9F0415B
:10A6500004460D4616461F461148006808B9BDE875
:10A66000F0812CB10E48006881680E488847206050
:10A670002DB10B48006881680B48884728602EB1CF
:10A680000748006881680948884730602FB104484E
:10A690000068816806488847386000BFDFE700002F
:10A6A000EC2A0020504A0020604A0020704A002016
:10A6B000804A00202DE9F04104460D4616461F460B
:10A6C0002B48006808B9BDE8F08194B128480068BB
:10A6D0008168284888478046264880684FF6FF7181
:10A6E000884203D023488068A8EB0008C4F80080A3
:10A6F00000BF95B11E48006881681F4888478046A2
:10A700001D4880684FF6FF71884203D01A48806860
:10A71000A8EB0008C5F8008000BF96B11448006897
:10A720008168164888478046144880684FF6FF7154
:10A73000884203D011488068A8EB0008C6F8008062
:10A7400000BF97B10A48006881680D488847804675
:10A750000B4880684FF6FF71884203D00848806834
:10A76000A8EB0008C7F8008000BF00BFABE70000FF
:10A77000EC2A0020504A0020604A0020704A002045
:10A78000804A002010B5024800F004F810BD000017
:10A79000C031040038B5044654B93549354A891AE0
:10A7A000C908012242EA014033A10CF0EDFA38BD9C
:10A7B00036480460364804600020354908738860D4
:10A7C000694607F045FA69463148226890473148A2
:10A7D000046001202F490873002088606946012029
:10A7E00007F036FA69462B48226890472A480460E9
:10A7F000022029490873002088606946022007F07A
:10A8000027FA6946244822689047244804600320B8
:10A8100022490873002088606946032007F018FA6F
:10A8200069461E482268904709F074F8E06980473D
:10A8300008B91BA000E01CA005460D490D4A891A65
:10A84000C908032242EA01402A4619A10CF0A6FADF
:10A85000E069804748B9114D6B680F4D6A680D4D2E
:10A8600069680B4D686804F071FC00BF9FE7000049
:10A87000385C0400505B0400496E76616C696420AA
:10A880006472697665725F7674000000EC2A0020BD
:10A89000504A0020604A0020704A0020804A002070
:10A8A00043533132333700004144533132333200A5
:10A8B000546F727175654163717569736974696FFD
:10A8C0006E20696E697469616C697A656420776964
:10A8D000746820257300000000200149087070474B
:10A8E000F02A00200148007870470000904A0020BC
:10A8F0000148007870470000F02A002010B5044697
:10A900000CB10DA100E00DA10A460D490D4BC91A6D
:10A91000C908032343EA01400BA10CF03FFA134896
:10A92000006800B910BD114800682146026910484E
:10A93000904700BFF6E700004F4E00004F4646002C
:10A94000385C0400505B0400546F7271756541639C
:10A95000717569736974696F6E5F506F7765724363
:10A960006F6E74726F6C3A2025730000EC2A002021
:10A97000504A002010B502490868804710BD000009
:10A980006C28002008B500BF4FF480700B49405878
:10A9900008B1012000E0002078B109480068804734
:10A9A00000BF00204FF48071044A885008461146C9
:10A9B0004058009000BF00BF00BF08BD000001402C
:10A9C0009028002010B5124C03202061606111A076
:10A9D000A0611349E1614FF4806121620021A1620D
:10A9E0006162E1620BA020660E4961662021A166CA
:10A9F00000212167E16661670BA1E01DFCF798FC6F
:10AA00000AA12046FCF794FC2020A07110BD000094
:10AA1000203B00205465726D696E616C000000007F
:10AA2000C83B0020C83F00205254540053454747BC
:10AA30004552000010B501460A69CB689A4204D815
:10AA40008C68641EE41AA01801E0D41A601E10BDC0
:10AA50002DE9F0470446894617464FF0000AE5689D
:10AA600000BFD4F81080A84503D9A8EB0500461E06
:10AA700004E0A5EB0800401CA1680E1AA068401B6A
:10AA8000B04201D9304601E0A068401B0646BE42F4
:10AA900001D2304600E03846064661684819324621
:10AAA0004946FCF7F3FBB244B144BF1B3544A068F0
:10AAB000A84200D10025E560002FD2D15046BDE864
:10AAC000F0872DE9F047044689461546E668A068F8
:10AAD000871BAF4208D9616888192A464946FCF7A6
:10AAE000D5FB7019E06010E0B846616888194246ED
:10AAF0004946FCF7CBFBA5EB070809EB07014246EB
:10AB00006068FCF7C3FBC4F80C80BDE8F087000068
:10AB10000FB41CB50246002007AC00290BD0491E1B
:10AB2000CDE90021054B6A462146069800F0ECF974
:10AB3000009A002111701CBC5DF814FB37B60200AE
:10AB400002E008C8121F08C1002AFAD170477047F6
:10AB5000002001E001C1121F002AFBD17047000054
:10AB60000146202908DA012088400A4A104008B12D
:10AB7000012070470020FCE7402909DAA1F12000FC
:10AB8000012202FA00F008B10120F2E70020F0E70C
:10AB90000120EEE7FC06FFBD0146202908DA01206E
:10ABA00088400A4A104008B1012070470020FCE7A5
:10ABB000402909DAA1F12000012202FA00F008B1CF
:10ABC0000120F2E70020F0E70120EEE7FC06FFBDE0
:10ABD00000BFEFF31081084672B67047014608299E
:10ABE00004D20120884000F0EC0008B90020704732
:10ABF0000120FCE7F8B505460E46C6B96946284669
:10AC000010F076F8044643F202018C4208D000BFEF
:10AC1000274627B100BF384601F016F900BF00BF34
:10AC20009DF80000C0F3400000B1F8BD00BF002156
:10AC3000284610F06FF80446002C5CD0112C5AD036
:10AC40000D2C21D12D492E4A891AC908022242EA27
:10AC500001402A462B490CF0A1F81321284676DF43
:10AC60000446002C47D020460CF0B2FF074623498B
:10AC7000234A891AC908022242EA01402B463A4671
:10AC800021A10CF097F836E00B2C0BD11B491C4A84
:10AC9000891AC908022242EA01402A4628490CF0D2
:10ACA0007DF828E043F2020084420BD11349144A94
:10ACB000891AC908022242EA01402A4621490CF0B9
:10ACC0006DF818E020460CF083FF07460B490C4A4C
:10ACD000891AC908012242EA01402B463A461AA1C4
:10ACE0000CF068F800BF274627B100BF384601F0D6
:10ACF000ABF800BF00BF00BF97E70000905B040007
:10AD0000505B0400503C040073645F626C655F67D5
:10AD100061705F646973636F6E6E65637428292068
:10AD200072657475726E6564202573206F6E206382
:10AD30006F6E6E5F68616E646C652025642E000026
:10AD4000103D0400C43C0400417373657274696E65
:10AD5000672E20706D5F636F6E6E5F7365637572D3
:10AD60006528292072657475726E656420257320CC
:10AD70006F6E20636F6E6E5F68616E646C65202518
:10AD8000642E00002DE9FF5F82B00021DDE9043070
:10AD9000020DDDF840B0034318D044F61050A2F283
:10ADA000FF3242431514119801281FD0A5EB0B0068
:10ADB000401C5FEA000A4FF000064E4FDFF8389162
:10ADC000B046504615D5CAF1000413E0119801248D
:10ADD0004AA3012801D16FEA0B010298119AC0E938
:10ADE0000031C0E9024206B0BDE8F09FCBF100009F
:10ADF000DFE704460021404A491842EB0450CDE900
:10AE0000001012E0E00707D032463B464046494674
:10AE1000FCF797FA8046894632463B46104619466B
:10AE2000FCF78FFA06460F466410002CEAD1DDE9E4
:10AE30000401DDE90023BAF1000F06DAFCF781FA1C
:10AE400042464B46FCF77DFA05E0FCF7ECFA424639
:10AE50004B46FCF7E8FA04460E460022284BFCF766
:10AE6000A7FC03D84FF0FF30014607E00022254B36
:10AE700020463146FCF7DCFBFCF781FC102409E09E
:10AE8000002C0ADB0A220023FCF78AF9039B3032EC
:10AE90001A55641E50EA0102F2D1641C039AC4F1EF
:10AEA00011031444119A012A03D0012208430DD141
:10AEB0000AE0084304D000204FF0110B119072E714
:10AEC000A3EB0B056D1E0DE05B4504DD4FF00002AA
:10AED00005F1010504E003DA4FF00002A5F10105D8
:10AEE000002AECD002981199C0E90231C0E900456E
:10AEF00079E70000000014400000F03F300000003F
:10AF00000000F0430000E03F2DE9FF4F95B09B4665
:10AF10008946064600250FE2252877D100242746DA
:10AF2000F84A0121059400E0044316F8013F203B54
:10AF300001FA03F01042F7D130782A2811D06FF0CF
:10AF40002F033078A0F13002092A16D8059A44F070
:10AF5000020402EB820203EB42021044761C0590CD
:10AF6000EFE759F8042B0592002A03DA504244F423
:10AF70000054059044F00204761C30782E2816D137
:10AF800016F8010F44F004042A280DD06FF02F02A8
:10AF90003078A0F13003092B09D807EB870302EBC7
:10AFA0004303C718761CF3E759F8047B761C307806
:10AFB0006C280FD006DC4C2817D068280DD06A28E2
:10AFC00014D104E0742810D07A280FD10DE044F495
:10AFD00000140AE044F4801401E044F44014727850
:10AFE000824202D104F58014761C761C30786628E3
:10AFF0000BD013DC582877D009DC002875D0452801
:10B00000F6D04628F4D047281AD19DE118E06328ED
:10B0100035D0642879D0652812D195E1702873D095
:10B0200008DC6728F1D069286FD06E280DD06F2812
:10B0300006D1B5E073282CD0752875D0782874D047
:10B040005A46179990476D1C75E1C4F302500228C7
:10B0500009D003280DD0D9F8001004280DD00D60B8
:10B0600009F1040967E1D9F80010EA17C1E90052B3
:10B07000F6E7D9F800100D80F2E70D70F0E719F847
:10B08000041B8DF8001000208DF80100EA46012015
:10B0900003E059F804AB4FF0FF3061074FF00001B7
:10B0A00002D40DE008F101018846B9420FDA80456B
:10B0B000F8DB1AF808100029F4D108E008F10101C2
:10B0C00088468142FADB1AF808100029F6D1059863
:10B0D0005B46A0EB080721463846179A00F094FA21
:10B0E000284400EB080507E04DE029E10DE01AF8DF
:10B0F000010B5A4617999047B8F10108F7D25B4601
:10B1000021463846179A13E142E00A220092C4F31E
:10B1100002524FF0000A022A08D059F804CB032A41
:10B120004FEAEC710AD00DE029E02AE009F10701AD
:10B1300021F00702F2E802C1914609E00FFA8CFC07
:10B140004FEAEC71042A03D14FFA8CFC4FEAEC7100
:10B15000002907DA0A460021DCF1000C61EB02014C
:10B160002D2202E0220504D52B228DF80420012295
:10B1700003E0E20701D02022F7E7904659E00A21D8
:10B1800002E010220DE010214FF0000A00910BE0C8
:10B1900010224FF0000A44F004040827009203E054
:10B1A00008224FF0000A0092C4F30252022A05D08E
:10B1B00059F804CB0021032A08D009E009F107015E
:10B1C00021F00702F2E802C1914605E01FFA8CFC6B
:10B1D000042A01D10CF0FF0C4FF00008220728D5FB
:10B1E000702806D0009B83F0100353EA0A0305D0B1
:10B1F0000EE040228DF80420012208E05CEA010202
:10B2000006D030228DF804208DF8050002229046E9
:10B21000009B83F0080353EA0A030AD15CEA0102A7
:10B2200001D1620705D530228DF804204FF00108C6
:10B230007F1E582804D034A003900EA802900DE081
:10B2400036A0F9E753466046009AFBF7A9FF84460B
:10B250000398825C0298401E029002705CEA010032
:10B26000F0D1029806A9081A00F1200A600702D559
:10B2700024F4803400E00127574502DDA7EB0A00E3
:10B2800000E0002000EB0A01009005984144401ABC
:10B290000590E00306D45B462146179A059800F016
:10B2A000B3F90544002706E001A85A46C05D179986
:10B2B00090476D1C7F1C4745F6DBE0030CD55B46D1
:10B2C0002146179A059800F09FF9054404E03020C4
:10B2D0005A46179990476D1C0099481E0090002906
:10B2E000F5DC08E0029802995A460078491C029160
:10B2F000179990476D1CBAF10001AAF1010AF1DC1F
:10B3000065E1000009280100303132333435363729
:10B3100038396162636465660000000030313233A1
:10B320003435363738394142434445460000000041
:10B3300000F058F90544761C307800287FF4ECAD15
:10B3400019B02846BDE8F08F620700D4062709F13E
:10B35000070222F0070CFCE80223E14603F0004854
:10B360005FEA080C02D00FF2702C0DE05FEA045C7B
:10B3700002D50FF2682C07E05FEAC47C02D00FF21E
:10B38000602C01E0AFF2700C4FF0FF3823F0004367
:10B39000CDF850C065280CD006DC452809D04628D9
:10B3A0001DD047283DD13DE0662818D067287ED1C2
:10B3B00038E00021112F01DB112000E0781CCDE9DD
:10B3C000000106A90EA8FFF7DDFCDDE90F010E9ACA
:10B3D00003910021009207F1010A04914DE04FF022
:10B3E00000400097CDE9011006A90EA8FFF7CAFC9E
:10B3F000DDE90F0203920E9B11990022DDF80CA0EB
:10B400000093049211B9791C00EB010AB7EB0A0012
:10B4100004D4C0F1FF3007F1010A0490AAEB070041
:10B42000019044E0012F00DA01270021112F01DDF6
:10B43000112000E03846CDE9000106A90EA8FFF76B
:10B44000A1FCDDE90F010E9A039100210491009205
:10B45000BA4621070CD40399514500DA8A46BAF15D
:10B46000010F05DD009AAAF10101515C302908D0D5
:10B47000B84202DA10F1040F06DA0121CDE9011019
:10B4800015E0AAF10101E9E7002805DC049901446F
:10B490000491AAEB000102E0411C514500DD8A46FF
:10B4A0000499401A401C01904FF000400290200780
:10B4B00004D40198504501DBCDF8048000208DF8BC
:10B4C0004F0002980DF14F07B0F1004F25D02B200F
:10B4D0000E9002984FF0020800280CDA40420290C9
:10B4E0002D200E9007E00A210298FCF71EF830315B
:10B4F000029007F8011DB8F10001A8F10108F2DC83
:10B5000002980028EFD1791E0E980870307800F06C
:10B51000200040F0450007F8020D12A8C01B00F102
:10B5200007081498007800B1012000EB0A01019887
:10B5300001EBE07105984144401A401E0590E0037C
:10B5400006D45B462146179A059800F05DF805443D
:10B550001498007818B15A46179990476D1CE0036B
:10B5600024D55B462146179A059800F04DF805440E
:10B570001CE00498002807DBDDE90301884203DDB5
:10B580000098405C179901E0179930205A4690477F
:10B59000049805F10105401C04900198401E01909B
:10B5A00004D12E205A46179990476D1CBAF100011C
:10B5B000AAF1010ADDDC05E017F8010B5A461799DC
:10B5C00090476D1CB8F10001A8F10108F4DC5B465E
:10B5D0002146179A0598ABE62D0000002B000000CD
:10B5E000200000002DE9F041044600251E461746C4
:10B5F000880404D405E039462020B0476D1C641E41
:10B60000F9D52846BDE8F0812DE9F0410446002532
:10B610001E469046C80301D5302700E02027880445
:10B6200004D505E041463846B0476D1C641EF9D587
:10B630002846BDE8F0814A68002A06D00A68531CF3
:10B640000B6010704868401E4860704770B58AB043
:10B650002C480068099002208DF8240009AD2A4E7C
:10B6600005B92A4D314628460DF062F8044600BF60
:10B6700000BF254625B100BF284600F0E5FB00BF0E
:10B6800000BF204A121D07CA06AB07C301208DF870
:10B690001E0006A90CF0E0FF044600BF254625B1B8
:10B6A00000BF284600F0D0FB00BF00BF154A103293
:10B6B00007CA03AB07C303A902200CF0CDFF044661
:10B6C00000BF254625B100BF284600F0BDFB00BFE6
:10B6D00000BF0C4A1C3207CA8DE8070069460720E4
:10B6E0000CF0BAFF044600BF254625B100BF28462E
:10B6F00000F0AAFB00BF00BF03200549086000BF9F
:10B700000AB070BDFC30040095DB0300F830040083
:10B71000F475004008B5694601200DF085F8BDF9C3
:10B72000000008F0C5FC00B205490880891C022011
:10B730000DF07AF80249091D07200DF075F808BDD3
:10B740007029002070B505460C4605B10CB90020E3
:10B7500070BD287840082178B0EB510F01D000204F
:10B76000F6E70622611C681CFBF7D5FD08B901202D
:10B77000EEE70020ECE7014601F0030008B90120E4
:10B7800070470020FCE7024650680068401E0840F1
:10B7900008B9012070470020FCE70246002104E0C0
:10B7A000505C08B101207047491C0629F8D30020DD
:10B7B000F9E710B50346D868884206D88818401EB5
:10B7C0001C69A04201D8012010BD0020FCE7000048
:10B7D00010B504466CB10848C068A04209D80648B4
:10B7E0000069A04205D3204607F0A2FC08B1012061
:10B7F00010BD0020FCE70000682B0020014609B9BD
:10B80000002070478868FCE710B504460CB900209A
:10B8100010BD207B10B900F08FF9F9E7207B0128DB
:10B8200002D100F08FF9F3E70020F1E70120704723
:10B8300070B504460CB9002070BD0025207B18B9F6
:10B8400000F07AF9054605E0207B012802D100F0DE
:10B8500079F905462846EFE770B504460D4604B968
:10B8600070BD207B58B900F047F80949094A891A88
:10B87000C908032242EA014007A10BF085FA002023
:10B880006060207B0E4951F82000A06000BFE7E710
:10B89000385C0400505B04004144533132333220A1
:10B8A000696E697469616C697A656420666F72207B
:10B8B0006475616C206368616E6E656C7300000076
:10B8C000942A002070B504460D4624B1207B10B99F
:10B8D000284600F091F870BD7047000000B970472D
:10B8E0008160027B022A03DA027B024B43F82210BA
:10B8F00000BFF4E7942A00202DE9F04186B01B2018
:10B900000AF065FE01211B200AF06DFF1E200AF0DF
:10B910005EFE1A200AF05BFE19200AF058FE002194
:10B920001E200AF060FF01211A200AF05CFF0021AE
:10B9300019200AF058FF0A2505B90EE000BF4FF4A0
:10B940007A7606B905E0204F4FEA86184046B84798
:10B9500000BF681E051EF2D100BF1C4B0FCB02AC0E
:10B960000FC400231A4602A919480AF069F80446D0
:10B9700000BF254625B100BF284600F065FA00BF8C
:10B9800000BF0CF001FC08B90CF094FB0F4810301C
:10B990000068019003208DF805000E4A01A91D20C2
:10B9A0000CF0EAFA01211D200CF090FA0A490B4A2A
:10B9B000891AC908032242EA014009A10BF0E4F9FF
:10B9C00006B0BDE8F0810000013204000832040036
:10B9D0009C2A0020E1BA0200385C0400505B04009D
:10B9E0004144533132333220696E697420636F6D84
:10B9F000706C65746564000010B5044621461B2018
:10BA00000AF0F1FE0CB107A100E007A10A460749C0
:10BA1000074BC91AC908032343EA014005A10BF0EB
:10BA2000BDF910BD4F4E00004F464600385C040083
:10BA3000505B04004144533132333220706F7765DC
:10BA4000725F636F6E74726F6C3A20257300000032
:10BA50002DE9F04F87B00020069000251E4F80464C
:10BA6000C1460DF1180A4FF0030B0490CDF8008089
:10BA7000CDF80490CDF808A0CDF80CB000226946AE
:10BA8000381D0DF037F804900498064600BF37467D
:10BA900027B100BF384600F0D7F900BF00BF9DF8BE
:10BAA000180000049DF8191040EA01209DF81A10B2
:10BAB000084305900598040904F4002008B10748DC
:10BAC000044325462846E91705EB91618D11284668
:10BAD00007B0BDE8F08F00009C2A00200000F0FFB6
